:020000022000DC
:1040000000F00320B942020059420200C5560200E6
:1040100000000000000000000000000000000000A0
:104020000000000000000000000000005D420200EF
:1040300000000000000000005F4202006142020038
:104040006342020065420200C16803006942020047
:104050006B4202006D420200F95A020071420200F6
:104060007342020075420200774202007942020068
:104070007B4202007D4202007F4202008142020038
:10408000834202008542020015A602008942020016
:104090008B4202008D42020005570200914202004D
:1040A00093420200954202009742020099420200A8
:1040B0009B4202009D420200000000000000000040
:1040C0009F420200A1420200A3420200A542020058
:1040D000A7420200A9420200AB420200AD42020028
:1040E000AF420200B1420200B342020000000000F1
:1040F00000000000B542020000000000B7420200CC
:10410000354936480A1A02D0072291438D46344970
:1041100034480A1A06D00722914381F30988022203
:1041200082F3148830483149314A00F043F831486D
:104130003149324A00F03EF831483249324A00F003
:1041400039F832483249334A00F034F832483349BA
:10415000334A00F02FF833483349344A00F02AF844
:1041600033483449344A00F025F8344834490022B1
:1041700000F02BF833483449002200F026F8334889
:104180003349091A082903DB002202600430016068
:104190001F482049884205D00268043003B4904784
:1041A00003BCF7E700208646EC4600200021294AA0
:1041B0009047FEE7884207D0521A05D003780130B5
:1041C0000B700131013AF9D17047884202D0027078
:1041D0000130FAE77047000000F0032000E80320F8
:1041E00000F0032000F0032058820300B8310020C3
:1041F0006C320020DC420200DC420200147003003A
:1042000058820300B8310020B83100201470030038
:104210001470030014700300147003001470030082
:10422000147003001470030014700300588203001C
:104230000C8303006C3200206C3200206C320020B2
:10424000A0630020A0630020A0630020A0630020E2
:10425000A0670020894C0200FEE7FEE7FEE7FEE7CC
:10426000FEE7FEE7FEE7FEE7FEE7FEE7FEE7FEE726
:10427000FEE7FEE7FEE7FEE7FEE7FEE7FEE7FEE716
:10428000FEE7FEE7FEE7FEE7FEE7FEE7FEE7FEE706
:10429000FEE7FEE7FEE7FEE7FEE7FEE7FEE7FEE7F6
:1042A000FEE7FEE7FEE7FEE7FEE7FEE7FEE7FEE7E6
:1042B000FEE7FEE7FEE7FEE70748854609F084F9DA
:1042C0004EF68850CEF20000016851F47001016092
:0C42D000FFF716BF7047000000F003204D
:1042DC0010B5074C041B2409012C04D97846054B56
:1042EC001B6813B19847204610BD00DEFBE700BFEA
:1042FC0084320020B44E002003461F2808D900F059
:10430C001F03054A03F5E073032142F8231070479D
:10431C004FF0A042F6E700BF000300500B7843B902
:10432C00104B1B6813F4804F03D00F4B1B68032BEF
:10433C0000D8704700B585B00C4BD3F804354A68EB
:10434C005088097B92F91420039202910190084A3B
:10435C0000924FF4A5720749042007F08BF905B0C1
:10436C005DF804FBF0310020EC31002000B000407F
:10437C009C7003009470030008B511F0EDFD08BDAE
:10438C0010B50C46FFF7A4FF012C19D03CB1022C40
:10439C001BD07846144B1B68F3B1984703E00121FE
:1043AC000D3001F0F7FA0D24104B1B880D339C4295
:1043BC0014D2204601F0E2FA014680B10134F3E751
:1043CC0000210D3001F0E6FAEDE7062264214FF4EE
:1043DC00F03001F0F1FAE6E700DEE4E7012110200D
:1043EC0001F0D8FA10BD00BFB44E0020B43200204A
:1043FC0070B586B006A9012341F8043D37480CF08E
:10440C0003FBA0B906AA012342F8043D3449334BFF
:10441C0018880CF0D5FB78B906A9032341F8043DA4
:10442C0003A80CF029FA60B90024254617E02D4AA0
:10443C008F2101F019F9E5E72A4A912101F014F9CD
:10444C00EAE7284A962101F00FF9EDE79DF80430D0
:10445C00012B16D09DF80430032B31D00134059B71
:10446C009C4238D201A906AB03EB440333F80C0C85
:10447C000CF0B4F90028E9D01A4A9B2101F0F4F8A9
:10448C00E4E7194901EB4501BDF806000CF03AFBD5
:10449C000028DFD1144B33F815204FF6FF739A42E6
:1044AC00D8D0124901EB450101A80CF027FA10B93C
:1044BC000135ADB2D2E70B4AA52101F0D5F8F7E7EB
:1044CC000B4901A80CF01AFA0028C7D0054AAA21FA
:1044DC0001F0CAF8C2E7284606B070BDD032002001
:1044EC008232002054700300B8320020D4320020F5
:1044FC00BC32002030B583B000242546012C14D8E2
:10450C0002A94FF6FF7321F8023D2301084AD05A45
:10451C000AF0B2FB48B9BDF806204FF6FF739A4279
:10452C0003D00135ADB20134E8E7284603B030BD05
:10453C008432002010B584B08A4B1B6813F4804F72
:10454C0003D0894B1B68032B0BD80BF0AFFF0AF081
:10455C009FFA4FF6FF73854A1380854A1380002318
:10456C0013E0844BD3F80435834A0092D02283495C
:10457C00042007F07FF8E8E74FF6FF72804921F836
:10458C001320804921F813200133012BF4D94FF665
:10459C00FF727D4B1A807D4811F088FA38B97C4A3D
:1045AC0000217C4811F046FC30B900240AE07A4A1C
:1045BC00DF2101F059F8F2E7774AE02101F054F8D5
:1045CC00F3E70134022C0ED8744800EB0410744B42
:1045DC004360A1B211F09EFC0028F2D06E4AE52196
:1045EC0001F042F8EDE70BF09DFEC8B1FFF700FFBC
:1045FC006C4B18800AF06AF9002842D0FFF77AFF5A
:10460C00694B188000F0ACFF674B1B88654A10881B
:10461C008342C0F09B80012840F29E8004B010BD04
:10462C00624B1B6804A840F8043D0BF057FFC8B957
:10463C0055494CF6FE200BF0A5FFC0B94B4A5C491E
:10464C0000200CF097F9B8B9494B5A4A47490988E8
:10465C0000200CF073FA0028CCD04F4AF32101F063
:10466C0003F8C7E74C4AF02100F0FEFFE0E74A4AA6
:10467C00F12100F0F9FFE1E7474AF22100F0F4FFE5
:10468C00E2E73B4B1988434B18880AF051FB40B9C1
:10469C00374B19883F4B18880AF08AFB30B9002435
:1046AC0010E03D4AFD2100F0DFFFF1E73A4AFE2120
:1046BC0000F0DAFFF3E7384A40F2031100F0D4FFC0
:1046CC000BE00134012C17D82301294A1188334AF5
:1046DC00D05A0AF02DFB0028EDD12301244A118871
:1046EC002E4AD05A0AF064FB0028EAD02A4A4FF42A
:1046FC00827100F0B9FFE4E71D4B1988274B188C29
:10470C000AF016FB80B91A4B1988244B188C0AF046
:10471C004FFB78B91C4B1988204B188C0AF07CFA8B
:10472C0070B909F0A3FC6DE71B4A40F2071100F0C9
:10473C009BFFE8E7184A4FF4847100F095FFE9E716
:10474C00154A40F2091100F08FFFEAE703F580707B
:10475C0080B200F0D5FD61E700F5807080B200F00A
:10476C00E5FD5BE7F0310020EC310020D032002079
:10477C008232002000B000403070030094700300BF
:10478C00B8320020D4320020BC3200204D5302003D
:10479C0029430200C03200205470030084320020F0
:1047AC008D430200D2320020B4320020147003007A
:1047BC00E4700300D470030030B585B005460123C6
:1047CC008DF80E30124A1378581C10708DF80F307B
:1047DC00ADF80C10C323ADF800305923ADF80230FE
:1047EC0003AB01930423ADF8083000242246094B97
:1047FC001B789C4208D2694628880AF005FA0246C2
:10480C0010B90134E4B2F2E7104605B030BD00BF78
:10481C00D8320020B831002030B585B005460022D2
:10482C008DF80E20114803785C1C04708DF80F3045
:10483C00ADF80C10C323ADF800305923ADF802309D
:10484C0003AB01930423ADF808301446084B1B78D6
:10485C009C4208D2694628880AF0D6F9024610B95B
:10486C000134E4B2F2E7104605B030BDD832002076
:10487C00B831002010B582B03039CCB263281DD0CD
:10488C006F2837D10020FFF777FD21462E48FFF720
:10489C0093FF04462D4B1B6813F4804F2BD02C4BED
:1048AC001B68032B27D92B4BD3F804352A4A0092CB
:1048BC0029222A49042006F0DDFE1CE00120FFF726
:1048CC005BFD21462048FFF7A7FF04461F4B1B68E2
:1048DC0013F4804F0FD01E4B1B68032B0BD91D4BB1
:1048EC00D3F804351E4A00922F221C49042006F0EE
:1048FC00C1FE00E00024082C0AD0042C08D0112C96
:10490C0006D0A4B1174A5B21204600F0ADFE0EE0A4
:10491C000E4B1B6813F4804F03D00D4B1B68032BFD
:10492C0007D8042232214FF4F03001F045F802B0E0
:10493C0010BD084BD3F804350B4A00925622074998
:10494C00042006F097FEECE7A4320020F0310020A2
:10495C00EC31002000B000404C71030038710300B2
:10496C0064710300307103007C71030038B5037867
:10497C00012B1CD013B1022B15D038BD0E4D28784D
:10498C000E4C204411F0CEFB2B7801332B70617848
:10499C002078FFF76FFF2B78013BE35C0A2B09D1E2
:1049AC0000222A7038BD406812F071F938BD406899
:1049BC0012F06DF938BD00BF803200206C3200203F
:1049CC0010B582B0304B1B6813F4804F03D02F4BC3
:1049DC001B68032B29D82E4B1B881A012D4931F843
:1049EC0013102D4B985A0AF017F968BB09F03EFBCF
:1049FC00274C208800210D3000F0CCFF2388013398
:104A0C009BB22380012B25D91F4B1B6813F4804FBD
:104A1C0003D01E4B1B68032B29D8042264214FF4AE
:104A2C00F03000F0C9FF02B010BD1C4BD3F80435B8
:104A3C00174A128801921A4A009240F28B121949B5
:104A4C00042006F017FEC6E7174A40F28F1100F05B
:104A5C000BFECBE7154B188800F5807080B200F088
:104A6C0065FC208801210D3000F094FFDBE70B4B37
:104A7C00D3F804350E4A00924FF4CE720949042043
:104A8C0006F0F8FDC9E700BFF0310020EC31002042
:104A9C00B4320020D43200208432002000B0004018
:104AAC00C07103009470030054700300D2320020D4
:104ABC00E871030000B583B01E4B1B6813F4804FE4
:104ACC0003D01D4B1B68032B19D81C4B1A881C4B8D
:104ADC0033F812000BF0A8FD00BB184B1A88194BC9
:104AEC0033F812000BF0E2FFF0B9174B188800F501
:104AFC00807080B200F01AFC03B05DF804FB134B1D
:104B0C00D3F804350D4A12880192114A009240F2F2
:104B1C00A3121049042006F0ADFDD6E70E4A4FF45F
:104B2C00D37100F0A1FDD8E70B4A40F2A71100F0B9
:104B3C009BFDDAE7F0310020EC310020B43200208C
:104B4C00D4320020B8320020D232002000B0004015
:104B5C009C710300947003005470030010B582B074
:104B6C0004463A4B1B88012B05D97846384B1B68F9
:104B7C00002B42D09847374B1B6813F4804F03D05F
:104B8C00354B1B68032B3AD8344B1988344B03EB49
:104B9C004101608A0BF0F6FC00283ED12F4B1A889D
:104BAC00304B03EB4203A2682F490988608A0BF053
:104BBC0039FF002837D1294B1A882A4B33F81200B9
:104BCC0010F0FCFF002834D1244B1B88244A32F807
:104BDC001310244A32F8130010F09CFF00282ED139
:104BEC001E4A138801331380184B188800F5807007
:104BFC0080B200F085FB02B010BD00DEBBE71B4BA2
:104C0C00D3F80435628A0192194A00924FF4D87293
:104C1C001849042006F02EFDB6E7174A40F2B311EE
:104C2C0000F022FDBAE7144A4FF4DA7100F01CFDD3
:104C3C00C1E7114A40F2B71100F016FDC4E70E4A65
:104C4C0040F2B91100F010FDCAE700BFB4320020E9
:104C5C00B44E0020F0310020EC310020D232002084
:104C6C00D4320020B8320020D032002000B00040F6
:104C7C0004720300947003005470030030B58DB0BF
:104C8C0006AC284D0FCD0FC495E8030084E8030053
:104C9C00254B02934FF480730393244A049205939B
:104CAC000723234A02A906A811F0D0F980BB214A98
:104CBC0004214FF4C04006F0C1FC1F4B1B6813F4D9
:104CCC00804F0ED01D4B1B68032B0AD91C4BD3F8FD
:104CDC0004351C4A009240F259221B49042006F06C
:104CEC00C9FC00F0C5FE194800F0D4FE98B91D208F
:104CFC00FFF702FB01210D2000F04CFE00F0CCFD73
:104D0C00FFF718FC124812F0D5F804F0DDFAFCE7B6
:104D1C0011F0BDFFCBE70F4A4FF4177100F0A4FC64
:104D2C00E5E700BF18700300DC320020DC33002004
:104D3C00794902001DB60200F0310020EC31002050
:104D4C0000B00040F470030094700300814802002E
:104D5C00247103005470030010B58AB0AB4B1B7860
:104D6C00033B072B00F27081DFE813F008000B0007
:104D7C0029004E0076009C00E2001E010422A34B89
:104D8C001A70A34B1B6813F4804F03D0A14B1B6804
:104D9C00032B04D810F02CFF60B90AB010BD9E4B49
:104DAC00D3F804359D4A009272229D49042006F0E6
:104DBC0061FCEFE79B4A732100F056FCEDE7944B46
:104DCC001B6813F4804F03D0924B1B68032B10D835
:104DDC00954B04AC0FCB84E80F002246002108460B
:104DEC0010F032FF0028D8D08E4A7C2100F03CFC19
:104DFC00D3E7894BD3F804358C4A00927A22884940
:104E0C00042006F037FCE3E7814B1B6813F4804F5A
:104E1C0003D0804B1B68032B13D84FF6FF73ADF8F0
:104E2C0012300223ADF81030049A0021804B188800
:104E3C0010F09EFF0028B0D07A4A882100F014FCB4
:104E4C00ABE7754BD3F804357A4A00928322744948
:104E5C00042006F00FFCE0E76D4B1B6813F4804F49
:104E6C0003D06C4B1B68032B11D85923ADF81230AF
:104E7C000021ADF81010049A6D4B188810F078FFD3
:104E8C0000288AD0674A942100F0EEFB85E7624B3C
:104E9C00D3F80435684A00928F226149042006F049
:104EAC00E9FBE2E700230493059306930793089329
:104EBC0009935F4A1288ADF8102001228DF8142056
:104ECC00ADF8162002208DF81F0002FA00F160F3F5
:104EDC0001018DF820108DF821204FF0FF328DF854
:104EEC0025208DF826208DF823008DF82430484B92
:104EFC001B6813F4804F03D0464B1B68032B0AD856
:104F0C0004A810F0F1FE00283FF447AF454AAA214F
:104F1C0000F0AAFB41E7404BD3F804350122019283
:104F2C00464A0092A8223E49042006F0A3FBE7E77C
:104F3C0000230493059306930793089309933C4A23
:104F4C001288ADF8102001218DF81410FF3A92B29E
:104F5C00ADF8162002208DF81F008DF82110592174
:104F6C008DF825108DF82630294B1B6813F4804FD3
:104F7C0003D0284B1B68032B0AD804A810F0B4FEEE
:104F8C0000283FF40AAF274AC02100F06DFB04E76C
:104F9C00214BD3F804350192294A0092BE222049B4
:104FAC00042006F067FBE8E7194B1B6813F4804FED
:104FBC0003D0184B1B68032B1CD81D4B18880023DF
:104FCC00059303228DF810204CF6FE22ADF812202A
:104FDC005922ADF80E20ADF80C30039B04AA06CA7A
:104FEC0010F09DFE00283FF4D8AE0E4ACF2100F001
:104FFC003BFBD2E6084BD3F80435124A0092C72289
:10500C000749042006F036FBD7E700BF0038002024
:10501C00F0310020EC31002000B00040C0720300E1
:10502C00B07203007072030034720300DC72030070
:10503C0044380020EC720300107303003C7303002F
:10504C007C730300BC7303007846034B1B680BB1E5
:10505C009847A2E600DEA0E6B44E002010B58AB058
:10506C0004465F238DF80C308DF80D306E228DF8D0
:10507C000E206F228DF80F2072228DF810206422E2
:10508C008DF8112069228DF8122063218DF81310F0
:10509C008DF814308DF8153073218DF816106521AC
:1050AC008DF817106D218DF818108DF819208DF8CA
:1050BC001A308DF81B300023ADF81C30ADF81E30C3
:1050CC00ADF82030194A1288ADF822209DF8242022
:1050DC0002F0FE0263F341028DF824200093019349
:1050EC00CDF8073001228DF801208DF802308DF8B3
:1050FC0004206B460E4A0F490F480FF0A7FE58B913
:10510C00002303AA21460C480FF0BEFE48B9022228
:10511C000A4B1A700AB010BD094A622100F0A4FAB9
:10512C00EEE7074A632100F09FFAF0E744380020CD
:10513C00E43400200438002004350020003800201E
:10514C007072030030B587B004460378033B082B1C
:10515C004CD8DFE803F005A6104B4B804B4D4500B7
:10516C005A4B1B78012B41D10430FFF777FF0222F9
:10517C00564B1A703AE0564B1B6813F4804F03D011
:10518C00544B1B68032B08D8504B1B78022B0FD0A9
:10519C00032B2BD1FFF7E0FD28E04F4BD3F8043560
:1051AC004E4A0092E6224E49042006F063FAEBE7E1
:1051BC00474B1B6813F4804F03D0464B1B68032BE3
:1051CC0003D80122414B1A7010E0434BD3F804353D
:1051DC00444A0092E9224249042006F04BFAF0E7D7
:1051EC0000223A4B1A700430FFF7B8FC07B030BD00
:1051FC001022012140680FF075FEB8B1344B1B68CA
:10520C0013F4804F02D0334B1B681BB901222F4B78
:10521C001A70EBE7304BD3F804350190324A009208
:10522C00FF222F49012006F025FAEFE7284B1B68D7
:10523C0013F4804FDAD0274B1B68032BD6D9264B9F
:10524C00D3F80435294A00924FF482722449042081
:10525C0006F010FACAE702AD254B0FCB85E80F001C
:10526C001022294660680FF046FEA0B9184B1B6847
:10527C0013F4804FBAD0174B1B68032BB6D9164BBF
:10528C00D3F804351B4A009240F20D121449042045
:10529C0006F0F0F9AAE7184A4FF4867100F0E4F929
:1052AC00E4E70B4B1B6813F4804F9FD0094B1B6832
:1052BC00032B9BD9084BD3F80435104A00924FF4BA
:1052CC0089720749042006F0D5F98FE700380020D1
:1052DC00F0310020EC31002000B00040D47303000A
:1052EC00B0720300F4730300187403005C740300C1
:1052FC00447203007C74030070720300A4740300F6
:10530C0008B5084B1880084B1B78022B05D00322DC
:10531C00054B1A70FFF720FD08BD0322024B1A70D3
:10532C0008BD00BF4438002000380020024B188014
:10533C000122024B1A7070474438002000380020BC
:10534C002DE9F04784B004AF28B30C46154629B3B9
:10535C002388022B2AD048F2030293426FD048F2E2
:10536C003E02934200F0818048F23E02934200F0EC
:10537C00918048F21902934200F0A18048F2190280
:10538C00934200F0B18048F21F02934200F0C180BA
:10539C00BD46BDE8F087FFF78DFBF9E77846674B14
:1053AC001B680BB19847D3E700DED1E7644A12784B
:1053BC00042AD0D1634B1B6813F4804F03D0624B8B
:1053CC001B68032B05D805225D4B1A70FFF7C4FC34
:1053DC00DEE7E946AC466B00083323F00703ADEB80
:1053EC00030D0DF11008C646002312E06268D25C72
:1053FC0059004FEA121A554E306810F80A000EF890
:10540C001300013102F00F023068825C0EF80120AB
:10541C0001336345EAD3002308F815304C4BD3F81D
:10542C000435CDF808804B4A01924B4A00924FF458
:10543C009E724A49042006F01DF9CD46C3E7404A46
:10544C001278052A8BD163681B7833B1062B04D0F4
:10545C0078463A4B1B6833B198470622384B1A7082
:10546C00FFF77AFC94E700DEF7E7354A1278062A54
:10547C007FF47AAF63681B7823B178462F4B1B6897
:10548C0033B1984707222E4B1A70FFF765FC7FE764
:10549C0000DEF7E72A4A1278072A7FF46AAF6368BE
:1054AC001B7823B17846254B1B6833B198470822EB
:1054BC00234B1A70FFF750FC6AE700DEF7E7204A2F
:1054CC001278082A7FF45AAF63681B7823B17846A8
:1054DC001A4B1B6833B198470922194B1A70FFF706
:1054EC003BFC55E700DEF7E7154A1278092A7FF4F2
:1054FC004AAF63681B7823B17846104B1B6833B1F5
:10550C0098470A220E4B1A70FFF726FC40E700DE84
:10551C00F7E70B4B1B780A2B7FF43AAF63681B78C9
:10552C0023B17846054B1B6833B198470022044BD6
:10553C001A70FFF745FA2BE700DEF7E7B44E0020B0
:10554C0000380020F0310020EC310020F431002034
:10555C0000B000405472030068720300B072030084
:10556C0008B500220A4B1A700A490B480FF088FC48
:10557C0038B90A480A4B03600023436003F08DFFDF
:10558C0008BD084A4FF4BA7100F06EF8F1E700BF9D
:10559C0000380020E434002004380020DC340020E3
:1055AC00515102007072030048DF704710DF7047E2
:1055BC0060DF704761DF70474FF0A0434FF4F0326B
:1055CC00C3F80825C3F80C25EFF3108372B6002836
:1055DC00FDD1704710B582B004460B4B1B6813F419
:1055EC00804F04D12046FFF7E7FF02B010BD074BF8
:1055FC00D3F804350190064A00924E22054900204A
:10560C0006F038F8EEE700BFF031002000B00040A3
:10561C00387503002875030010B584B00C460D4B8B
:10562C001B6813F4804F02D00B4B1B6823B9204628
:10563C00FFF7C2FF04B010BD084BD3F8043503923A
:10564C0002910190064A009270220649012006F050
:10565C0011F8ECE7F0310020EC31002000B00040F4
:10566C000C7603002875030000B585B00D4B1B6844
:10567C0013F4804F02D00C4B1B682BB90120FFF7A1
:10568C009BFF05B05DF804FB084BD3F80435039081
:10569C0002910192064A009248220649012005F027
:1056AC00E9FFEBE7F0310020EC31002000B00040C6
:1056BC00E07403002875030000B583B00A4B1B6827
:1056CC0013F4804F05D10120FFF776FF03B05DF88E
:1056DC0004FB064BD3F80435054A009254220549C5
:1056EC00002005F0C7FFEEE7F031002000B00040CD
:1056FC00D07403002875030000B583B002E0019854
:10570C0003F0C6FE01A8FFF74FFF0028F7D0572380
:10571C00ADF8023005E0084803F0B8FE5723ADF8A9
:10572C0002300DF102010448FFF744FF0028F2D0CB
:10573C0003B05DF804FB00BF4838002010B584B0FE
:10574C00264B1B6813F4804F03D0254B1B68032B8F
:10575C002BD8244B0393039B0293204B1B6813F40D
:10576C00804F03D01E4B1B68032B29D802A8FFF7D0
:10577C001FFF0446029A039B9A4213D0174B1B68D7
:10578C0013F4804F0ED0164B1B68012B0AD9164B05
:10579C00D3F804350192154A00928C221449022048
:1057AC0005F068FF204604B010BD0F4BD3F804354C
:1057BC00104A00927A220E49042005F05BFFC8E7DC
:1057CC00094BD3F80435039A01920B4A00928322B9
:1057DC000749042005F04EFFC8E700BFF031002058
:1057EC00EC310020B831002000B00040D07503002F
:1057FC0028750300A4750300C075030000B583B0C1
:10580C0002AB43F8040D20491846FFF7CFFEA8B9A8
:10581C001E4B93F816335B09012B16D9042B16D0AB
:10582C00052B10D00123A3B942F2020008BBFFF7ED
:10583C0085FF18BB002003B05DF804FB144A9321CC
:10584C00FFF712FFE4E70023EDE70023EBE700236B
:10585C00E9E7104B9B682BB94FF480020B4B1A6095
:10586C000020E3E70B4A136843F480031360002025
:10587C00DCE7074A9421FFF7F7FED8E7044A9721A3
:10588C00FFF7F2FED6E700BF2556020000E100E06C
:10589C0000750300A038002000B587B02D4B1B68A5
:1058AC0013F4804F03D02C4B1B68032B26D82B4BA7
:1058BC0018680590FFF7A2FF264B1B6813F4804F66
:1058CC0003D0254B1B68032B23D800230493059B83
:1058DC000293234B039302A803F070FC20BB1D4BD7
:1058EC001B6813F4804F03D01B4B1B68032B20D871
:1058FC0003F0BEFC40BB07B05DF804FB194BD3F8BA
:10590C000435194A0092B5221849042005F0B2FE5C
:10591C00CDE7144BD3F80435154A0092BF22134936
:10592C00042005F0A7FED0E7124AC421FFF79CFE25
:10593C00D5E70C4BD3F804350F4A0092C6220B491D
:10594C00042005F097FED3E70A4AC721FFF78CFE27
:10595C00D1E700BFF0310020EC310020CC74030003
:10596C00E155020000B00040547503002875030097
:10597C0070750300007503008C7503004FF0A04395
:10598C00D3F80425012303FA00F002420CBF184699
:10599C000020704739B9012303FA00F04FF0A043FF
:1059AC00C3F808057047012303FA00F04FF0A04339
:1059BC00C3F80C057047000070B402F0FE0200241E
:1059CC0000E0013494424CD24FF0A045D5F8043598
:1059DC004340C5F804354FF47A7303FB01F3002BF5
:1059EC00EFD0214D2D68214E00BF00BF00BF00BF7E
:1059FC0000BF00BF00BF00BFB5422FD000BF00BF2B
:105A0C0000BF00BF00BF00BF00BF00BF00BF00BF92
:105A1C0000BF00BF00BF00BF00BF00BF00BF00BF82
:105A2C0000BF00BF00BF00BF00BF00BF00BF00BF72
:105A3C0000BF00BF00BF00BF00BF00BF00BF00BF62
:105A4C0000BF00BF00BF00BF00BF00BF00BF00BF52
:105A5C0000BF00BF00BF00BF00BF00BF013BC3D1F0
:105A6C00AFE770BC704700BFFC3100200024F4008D
:105A7C000D230BE04FF0A04103F5E072032041F839
:105A8C00220001229A40C1F808250133102BF1D9CC
:105A9C0070470000F0B1104A1060002309E00F4A73
:105AAC00D25C02F5E0720E484FF0A04141F82200A2
:105ABC000133032BF3D90B4B4FF00042C3F80423F3
:105ACC000020C3F87C01084BC02283F80623402237
:105ADC001A6070470E207047AC3800202C760300FB
:105AEC000C0003000060004000E100E010B5002451
:105AFC00144BC3F87C4103E0D11A14E00134E4B236
:105B0C00032C1ED84FF0A043D3F810250E4B195D73
:105B1C0001238B409343F1D00C4B1B680C4AD2F8F9
:105B2C000425991AE8D441F69A139942E6D9084B00
:105B3C00D3F80425054B1A60064B1B682046984782
:105B4C00DCE710BD006000402C760300B03800206C
:105B5C0000B00040AC3800200620704708B5074B59
:105B6C001B780BB9062008BD054B1B680BB1984779
:105B7C0008BD0146034802F041FB08BDC8380020AF
:105B8C00CC380020B4380020064B074A92E80300BA
:105B9C0083E803000833443292E8030083E80300EF
:105BAC00704700BFD03800206000001000487047DC
:105BBC00D038002043DF704770B58CB003460E46DA
:105BCC0015466C46006859689A68DB680FC43068E3
:105BDC007168B268F3680FC46846FFF7EBFF08AC56
:105BEC000FCC28606960AA60EB600CB070BD00003F
:105BFC00002308E0074901EBC30000224280426009
:105C0C0001F8332001331F2BF4D90022024B1A6008
:105C1C00704700BFE0380020E039002030B4054662
:105C2C000F4B1B6800240AE01F230E4A12F83300A6
:105C3C00A0B102EBC3025288AA4207D001341F2C38
:105C4C000BD85A1E002BEFD01346EEE7054A02EB99
:105C5C00C30252688A42F1D100E0002030BC704788
:105C6C00E0390020E038002030B40A4A13680A4CAE
:105C7C0004EBC30568806960012104F833100B4400
:105C8C001360202B01D030BC70470022014B1A60EE
:105C9C00F9E700BFE0390020E0380020C0F30C0326
:105CAC008B4202D3C91A08447047C91A0844A0F59C
:105CBC0000507047C37D002B41D083780A7802F0E6
:105CCC00800203F07F0313430B7002780B7803F010
:105CDC007F0343EAC2130B7003787BB330B4437871
:105CEC00082B14BF002201224B7803F07F0343EAF8
:105CFC00C2134B70858803F08003C5F386142343CD
:105D0C004B708A7802F0030242EA8502D2B28A70A2
:105D1C00857902F0FC02C5F3C10422438A70CB786A
:105D2C0003F01F0343EA4513DBB2CB70C27903F0D7
:105D3C00E00302F01F021343CB7030BC7047837832
:105D4C000A7802F0BF029B0103F0400313430B706F
:105D5C00C27803F0C00302F03F0213430B70B4E7A8
:105D6C0030B405460023184607E06C22104C02FBA9
:105D7C000342928AAA4210D00133032B16DC6C2208
:105D8C000B4C02FB034292F84420002AEDD1002870
:105D9C00F2D16C2202FB0340EEE76C2202FB0342C1
:105DAC0092888A42E8D16C2000FB034030BC7047DB
:105DBC004C3A002010B403460A4689694978C170F0
:105DCC009169097881F00101817091694162118AB0
:105DDC000B2903D8D17A49B3012100E001211970B4
:105DEC0041B31649897D19BB04205870118A0144AE
:105DFC000B31134880FB0140C917C1EB600101391D
:105E0C00D971002199710021D97503F10C0492E824
:105E1C00030084E803005169196211899982917A0F
:105E2C009975D2699A625DF8044B70470021D6E7E8
:105E3C000820DAE704215970E5E700BF343A002066
:105E4C00ABAAAA2A70B58CB006460D4614462C2275
:105E5C00002101A811F074F817238DF80430ADF867
:105E6C0008604FF0000365F300038DF80A308DF8DD
:105E7C000B4001A801F0FEF90CB070BD30B58DB02F
:105E8C0005460C462C22002101A811F059F81823C4
:105E9C008DF8043002958DF80C4001A801F0EAF958
:105EAC000DB030BD00B58DB043784BB9084B9A425C
:105EBC0006D001238DF80430029201A801F0DAF922
:105ECC00044B186804F044FC0DB05DF804FB00BFF3
:105EDC005EE6655EE8390020F0B40D684C688F68AA
:105EEC00CE68D5601461576196610D694C69D561B6
:105EFC0014620378DB091370D17DF9B1037803F0D8
:105F0C007F0393700023537013789BB143789B01EC
:105F1C0003F4FE53817843EA910393808378DB008A
:105F2C0003F01803C17843EA51139371C37803F05B
:105F3C001F03D37100235362F0BC70470178C1F387
:105F4C0080119170017801F03F01D17043B1437819
:105F5C0013F0800F02D008235370D5E70423FBE71E
:105F6C0004235370D0E770B50C461E4603788BB1F2
:105F7C0004252A44A26000F10C032360836A636049
:105F8C00204605F09BF8024610B923691D44356084
:105F9C00104670BD0125ECE72DE9F0418EB00D46A1
:105FAC0016461C46804600282DD0002D33D0002CE0
:105FBC0039D0636A0233059304F10C00A378002BEB
:105FCC0039D00121627801AF3B46082A14BF002268
:105FDC00012204F055FC0697CDF81C80B2B2ADF846
:105FEC0020200B9515440C9563788DF83430237B69
:105FFC00022B22D00023ADF8283005A804F038FC81
:10600C000EB0BDE8F0817846144B1B680BB1984775
:10601C00CBE700DEC9E77846104B1B680BB19847FD
:10602C00C5E700DEC3E778460C4B1B680BB19847FD
:10603C00BFE700DEBDE70221C4E723692BB123696A
:10604C0009931023ADF82830D7E77846034B1B682B
:10605C000BB19847F3E700DEF1E700BFB44E002028
:10606C002DE9F04186B004460D4601EB41039F003B
:10607C00C379994235D00C26A5716B46324601A9DD
:10608C002046FFF770FF804628BB94F84E30ABB922
:10609C0025B17846164B1B683BB39847A369C3F3ED
:1060AC000C03A380B4F84610627823468A1AA16EBA
:1060BC000846FFF771FF012384F84E3005992046FE
:1060CC00FFF7F8FDA16E32463944009810F00EFF30
:1060DC0001A805F01DF8B8FA88F0400906B0BDE833
:1060EC00F081B0F84660F61BC6E700DED6E700BFCD
:1060FC00B44E002070B5054690F84C40002601E0E7
:10610C000134E4B2EB799C420ED8AA6C0123A34073
:10611C001A42F5D121462846FFF7A2FF20B10136DD
:10612C00631C85F84C30EBE7304670BDF0B587B09A
:10613C00447814440F2C03D90924204607B0F0BD31
:10614C0016460F4605466B46224601A9FFF70BFF84
:10615C0004460028F1D105992846FFF7ABFD2B46E4
:10616C00324600993846FFF717FF01A804F0D0FF1C
:10617C00E3E7000010B5044690F84430012B04D03E
:10618C0078460E4B1B687BB19847237B012B0DD0B7
:10619C000B4BDB68A36303F095FDA16B014404F189
:1061AC002C0003F0EBFC10BD00DEEEE7A37D044AEF
:1061BC00D168126902FB0313A363ECE7B44E002011
:1061CC00343A002038B5002400E00134032C13D8F5
:1061DC006C230A4A03FB042393F84430012BF4D1BB
:1061EC006C2505FB04252846FFF784FF0028ECD01E
:1061FC002846FFF7BFFFE8E738BD00BF4C3A002048
:10620C0038B5044690F84430022B04D07846084B3D
:10621C001B6853B19847074B1D6803F053FD2918B1
:10622C0004F12C0003F0AAFC38BD00DEF3E700BF3C
:10623C00B44E0020343A002038B5044690F844306F
:10624C00022B04D078460B4B1B688BB198470A4B3A
:10625C005D7D5A689B6803FB052503F033FD4119EE
:10626C0004F14C0003F08AFC012384F8643038BD3F
:10627C0000DEECE7B44E0020343A002070B596B046
:10628C00037B012B03D00025284616B070BD0023DC
:10629C008DF82E308DF82D3014938DF82C30344A27
:1062AC00159201228DF843208DF83820828AADF8A2
:1062BC003A200F93C389ADF84030837D002B51D128
:1062CC008DF842300E460446036A139303AB062244
:1062DC0006A90BA8FFF747FE05460028D4D10A995A
:1062EC000BA8FFF7E7FC039AA488117801F0800053
:1062FC00C4F3861101431170537803F0030343EA8E
:10630C0084035370039B320E9A70320CDA70320A8B
:10631C001A715E7107238DF8103000238DF811303F
:10632C0006238DF81230039B059304A8FFF716FC87
:10633C00A0B1104B1B6813F0200F0FD00E4B1B6835
:10634C00012B0BD90D4BD3F8043501900C4A00925C
:10635C0040F24F220B49022005F08CF906A804F0FC
:10636C00D7FE91E7084B5B7D8DF84230AAE700BF62
:10637C005EE6655EF0310020EC31002000B000409C
:10638C006C7603005D760300343A002010B50C46A1
:10639C0091F84430022B04D07846094B1B6863B14A
:1063AC009847022384F86430A16C2046FFF766FFFF
:1063BC0010B9002384F8643010BD00DEF1E700BF93
:1063CC00B44E002010B504460C4B1B68806E9847E9
:1063DC000023A36604F12C0003F09AFB94F84430DC
:1063EC00022B05D0002084F8440002F083FB10BD82
:1063FC0004F14C0003F08CFBF4E700BFEC390020F7
:10640C0010B58CB0044690F84430012B04D078467B
:10641C00094B1B686BB1984701238DF80430236D31
:10642C00029301A800F026FF2046FFF7CBFF0CB02B
:10643C0010BD00DEF0E700BFB44E002030B585B0D3
:10644C000D460446002859D008238DF808308DF8E5
:10645C00095000238DF80A30039302A8FFF77EFB46
:10646C00A0B1334B1B6813F0200F0FD0314B1B68BE
:10647C00012B0BD9304BD3F8043501902F4A0092E5
:10648C004FF4DC722E49022005F0F4F823782BB976
:10649C0078462C4B1B68002B38D0984700238DF87E
:1064AC000830E36903F001038DF80930A38AADF8D5
:1064BC000A30A188A069FFF7F1FB0390224A136808
:1064CC00591C116003F00702204B03EBC20304AA12
:1064DC0012E9030083E803002946206DFFF7CEFC88
:1064EC002046FFF76FFF124B1B6813F0040F03D00D
:1064FC00104B1B68032B0BD805B030BD7846114BE5
:10650C001B680BB198479FE700DE9DE700DEC5E7EF
:10651C00094BD3F8043594F8442001920C4A0092AC
:10652C004FF4DF720649042005F0A4F8E4E700BF3D
:10653C00F0310020EC31002000B000406C760300FC
:10654C005D760300B44E0020303A0020F039002074
:10655C009C76030008B508460021FFF76FFF08BDC5
:10656C0010B50C4691F84430012B04D078460F4BF3
:10657C001B6853B1984794F84D306BB9237B012BB2
:10658C0005D02046FFF73CFF10BD00DEF3E70021ED
:10659C002046FFF753FF10BD013B84F84D3000231C
:1065AC0084F84C302046FFF7A5FD10BDB44E0020FA
:1065BC00F0B585B005460E460178890101F4FE510F
:1065CC004078AC78EB781B0443EA04632C7943EAFB
:1065DC0004236C791C4341EA9001D089FFF7C0FB7E
:1065EC0020B1074690F84430012B15D02F4B1B6877
:1065FC0013F0040F0ED02E4B1B68012B0AD92D4B18
:10660C00D3F804352C4A00924FF492622B490220A5
:10661C0005F030F805B0F0BD06238DF808300023E6
:10662C008DF809308DF80A60039502A8FFF796FAE9
:10663C00A0B11E4B1B6813F0200F0FD01C4B1B6816
:10664C00012B0BD91B4BD3F8043501901C4A00923B
:10665C0040F294421949022005F00CF8BD6C254318
:10666C00BD64BCB13B7823B97846164B1B68B3B1FB
:10667C009847FB795A1C01239340013B9D4210D053
:10668C00002387F84C303846FFF734FD3846FFF7C7
:10669C0071FDBFE703213846FFF7D0FEBAE700DEF5
:1066AC00E7E73846FFF7ACFEB4E700BFF031002057
:1066BC00EC31002000B00040C87603005D7603008A
:1066CC006C760300B44E002010B5947804B110BD64
:1066DC00FFF76EFFFBE700002DE9F04104460D4685
:1066EC0016461F46531EDBB2012B05D97846334B99
:1066FC001B68002B49D09847A36E2BB178462F4BC3
:10670C001B68002B43D098472D4B1B683846984785
:10671C00A06600284ED02B46224605F12001D3F866
:10672C000080D3F804C0D3F808E0D868C2F8008021
:10673C00C2F804C0C2F808E0D060103310328B42AB
:10674C00EDD1186859689B68106051609360002304
:10675C00A364A4F84670A988A869FFF79FFAA06102
:10676C00012E16D0174BA362002384F86430164B0D
:10677C006365E465154B6363E463012002F0BAF9C9
:10678C0084F844600120BDE8F08100DEB4E700DE4F
:10679C00BAE70F4B1B7D84F84D30002384F84E3044
:1067AC0084F84C30AB6A2365064BA362094B6363D8
:1067BC00E463E2E70020BDE8F08100BFB44E0020A6
:1067CC00E43900205EE6655E9963020061650200B3
:1067DC00343A00206D650200F0B583B0CB790133FB
:1067EC0003EB43039C00B4F5C07F19D91F4B1B6806
:1067FC0013F0040F38D01E4B1B681BB90026304613
:10680C0003B0F0BD1B4BD3F8043501941A4A009227
:10681C0040F25D221949012004F02CFF0026EEE71E
:10682C0007460D46C96901F00101A88A06F03EFA37
:10683C00064688B9E969002201F00101A88AFFF730
:10684C0001FB002EDBD100213846FFF717FD02219A
:10685C000020FFF713FBD2E72346022229463846D5
:10686C00FFF73AFF0646ECE70026C8E7F0310020B8
:10687C00EC31002000B00040B47603005D760300DC
:10688C0038B505468188808AFFF76AFA044610B14C
:10689C0090F844300BB1204638BD2946FFF79CFFD9
:1068AC000028F8D10024F6E700B585B000238DF858
:1068BC000F3098B10346084602330B600DF10F01FF
:1068CC0003F0DAFF9DF80F3043B10D4B1B6813F04A
:1068DC00040F03D00B4B1B68032B04D89DF80F003F
:1068EC0005B05DF804FB084BD3F80435074A009259
:1068FC0040F201320649042004F0BCFEEEE700BF72
:10690C00F0310020EC31002000B00040287703006B
:10691C005D7603002DE9F0438FB004460E46154614
:10692C001F46D0F81890037823B181884846FFF7AA
:10693C00B5F9A06104F10C00A378002B3AD0012129
:10694C0062780DF128084346082A14BF0022012260
:10695C0003F096FFC4F81890CDF80880039663787E
:10696C00EA1A92B2ADF810203244089207978DF8CB
:10697C0024300023ADF81830237B022B1CD0A378D5
:10698C006BB3237B022B1BD02546002345F8243FF9
:10699C002A46E178206A0AF013FA606A98B101A9D4
:1069AC00FFF782FF00283CD12A46E178206A0AF0E2
:1069BC0007FAF2E70221C3E71023ADF81830DEE73F
:1069CC0023690593E0E7237B022B2ED104F10C0104
:1069DC00E0890AF087FA0028D3D1052022E00023B1
:1069EC006362237B012B0DD02146002341F8243F09
:1069FC00A08A0AF00DFA01A9606AFFF755FF70B979
:106A0C0005200FE004F12401E0890AF001FA01A944
:106A1C00606AFFF749FF0028E6D0002002E0002062
:106A2C0000E000200FB0BDE8F0830520FAE700007D
:106A3C00F0B5F1B006460D4614461F4610AB0A469B
:106A4C0001462046FFF766FF00282FD0454B1B68F8
:106A5C0013F0040F03D0444B1B68052B74D803238D
:106A6C008DF81430A378002B7AD000238DF81530D4
:106A7C008DF81650069605A8FFF770F8002861D01F
:106A8C00384B1B6813F0200F5CD0374B1B68012B65
:106A9C0058D9364BD3F804350190354A009240F260
:106AAC00E3423449022004F0E5FD4BE001238DF86C
:106ABC00143000238DF815306378EB1A8DF81630EE
:106ACC00069605A8FFF74AF8A0B1264B1B6813F0F1
:106ADC00200F0FD0244B1B68012B0BD9234BD3F861
:106AEC0004350190224A009240F2CA422149022008
:106AFC0004F0C0FD03AB01228DF80C20A28AADF886
:106B0C000E20002204928DF8142010AA06926278AE
:106B1C00AD1AADF81C5008AA93E8030082E80300F4
:106B2C000AAB04F10C0292E8030083E80300A37D96
:106B3C008DF83830236A0C93636A0D930F9705A870
:106B4C0000F098FB71B0F0BD084BD3F804350A4A3D
:106B5C00009240F2DD420749062004F08BFD7EE7EF
:106B6C00022383E7F0310020EC31002000B000401C
:106B7C006C7603005D7603004C77030010B5D47D72
:106B8C0014B9FFF755FF10BDFFF79EFD10BD0000B7
:106B9C0043781344B3F5C07F01D9092070472DE920
:106BAC00F04385B004AFEFF3108E72B60024032CC3
:106BBC000DDC6C25424E05FB046595F844500DB177
:106BCC000134F4E76C263E4D06FB045400E000242F
:106BDC00BEF1000F00D162B6002C6CD015460E46EB
:106BEC00014601222046FFF777FD08B9042063E037
:106BFC002A463146A06E10F079F9324B1B6813F01F
:106C0C00040F03D0304B1B68032B10D82D4B1B6883
:106C1C0013F0040F03D02C4B1B68032B13D8204606
:106C2C00FFF768FA2046FFF7A5FA002044E0274B4F
:106C3C00D3F80435264A009240F2CE32254904207E
:106C4C0004F018FDE2E76D46B4F846C04FEA4C0379
:106C5C00083323F00703ADEB030D0DF11008C64606
:106C6C00002312E0A26ED25C59004FEA12191A48A6
:106C7C00066816F809600EF81360013102F00F0275
:106C8C000068825C0EF8012001336345EAD30023CF
:106C9C0008F81C300D4BD3F80435CDF808800F4A9A
:106CAC0001920F4A009240F2D3320A49042004F0B8
:106CBC00E1FCAD46B3E704200437BD46BDE8F083E4
:106CCC004C3A0020F0310020EC31002000B00040A4
:106CDC00F87603005D760300F43100201C77030086
:106CEC006872030010B582B00446037823B9784665
:106CFC00144B1B681BB3984701238DF80030E369D4
:106D0C0003F001038DF80130A38AADF80230A1889D
:106D1C00A069FEF7C3FF01900B4A1368591C116060
:106D2C0003F00702094B03EBC20302AA12E90300AA
:106D3C0083E803002046FFF745FB02B010BD00DEE0
:106D4C00DAE700BFB44E0020303A0020F0390020C2
:106D5C0038B500240CE000DE6C231F4A03FB04232F
:106D6C00DB795A1C01239340013B9D422BD001340B
:106D7C00032C2FD86C23184A03FB042393F84430BC
:106D8C00022BF4D16C2303FB042393F86430022B05
:106D9C00EDD16C2000FB0420816CFFF76FFA00280A
:106DAC00E5D10D4A6C2303FB04F3D11881F8640080
:106DBC008D6CD35C002BCFD17846084B1B68002B15
:106DCC00C9D09847C8E76C20034B00FB0430FFF791
:106DDC0089FFCCE738BD00BF4C3A0020B44E0020F0
:106DEC0008B5FFF7EFF9FFF7B3FF08BD2DE9F04346
:106DFC0083B081460F4614469846137823B97846DB
:106E0C00664B1B6853B19847E56905F00105A68AE6
:106E1C00A188A069FEF742FF002302E000DEF3E741
:106E2C000133072B1DD85E4A1268934216D25D4A75
:106E3C0002EBC30252689042F2D15A4A02EBC302EF
:106E4C0052889642ECD1574A02EBC30252789542D3
:106E5C00E6D1544A12F83330012204E000231A46DA
:106E6C0001E000231A46B2B173B1237823B97846F6
:106E7C004A4B1B6833B19847E1794B1C012199406F
:106E8C00013902E000DEF7E700212046FFF7F6F9B2
:106E9C0003B0BDE8F0832046FFF7F2FC054648B38B
:106EAC00A26983699A42F3D3E269C3699A42EFD12A
:106EBC003D4B1B6813F0040F03D03C4B1B68032B9A
:106ECC001CD82846FFF79CF92B7B012B24D0AA6CED
:106EDC00A17901238B401A42DAD11343AB64A27916
:106EEC00EB799A4220D00C2F25D004212846FFF7AD
:106EFC00A5FACDE70221FEF7C1FFC9E72C4BD3F869
:106F0C000435A27901922B4A009240F2C2222A49FE
:106F1C00042004F0AFFBD4E795F86430002BD6D1F5
:106F2C002846FFF789F9D2E703EB43039A0093B2A3
:106F3C003B44A5F84630A86EA37903EB43039C00B1
:106F4C003A46494620440FF0D1FFAC6C2B7823B95C
:106F5C007846124B1B68F3B19847EB795A1C012306
:106F6C009340013B9C4293D143462A46B5F84610C8
:106F7C00A86EFFF703FE022385F86430A96C28463F
:106F8C00FFF77CF9002883D1002385F8643028466C
:106F9C00FFF7A8FE7CE700DEDFE700BFB44E002061
:106FAC00303A0020F0390020F0310020EC31002084
:106FBC0000B000403C7703005D76030008B506493D
:106FCC00064800F049F830B17846054B1B680BB108
:106FDC00984708BD00DE08BDCD6D0300356D03007C
:106FEC00B44E002008B5FFF7E9FF4FF4D87200212A
:106FFC0010480FF0A5FF05F0ABFE00220E4B1A60F7
:10700C000E4B0F4919600F4959604CF25031996081
:10701C000D48D8601961042119759A7508225A75A2
:10702C000A4803F06BFB0A4B18600A4806F076F826
:10703C0008BD00BF4C3A0020303A0020343A002002
:10704C0080969800F049020020A10700ED6D020027
:10705C00E8390020B15E020008B50346B0FA80F0B2
:10706C0040090A46B1FA81F14909884201D00E2043
:10707C0008BD4BB1EFF3108072B607490B60074B9C
:10708C001A6038B962B608BD002AF3D1FFF796FF33
:10709C00002008BD002008BDE4390020EC39002098
:1070AC002DE9F04192B0002800F090800746002AAC
:1070BC0000F08E80984614460E46002310931193D0
:1070CC0010A9508809F00EFF18BB03238DF80C3063
:1070DC0004238DF80D308DF80E60049703A8FEF78D
:1070EC003DFDA0B13D4B1B6813F0200F0FD03C4B66
:1070FC001B68012B0BD93B4BD3F8043501903A4A52
:10710C00009240F279523949022004F0B3FA00257A
:10711C005FE0226902F00102E168208905F0E2FDDE
:10712C0018B303238DF80C3005238DF80D308DF832
:10713C000E60049703A8FEF711FDA0B1274B1B6846
:10714C0013F0200F0FD0264B1B68012B0BD9254BAE
:10715C00D3F804350190244A009240F2845223491A
:10716C00022004F087FA002533E0226902F00102C4
:10717C00E168208905F060FD0546C0B905AA2146E5
:10718C003846FEF7A9FE08AB12AA12E9030083E801
:10719C00030003F073FA9DF8143083B1434605AA3B
:1071AC00311F381DFFF722FE03F088FA11E0216928
:1071BC00002201F001012089FEF744FE09E043465C
:1071CC0005AA711E781CFFF7D9FCEDE70E2500E02F
:1071DC000E25284612B0BDE8F08100BFF03100202A
:1071EC00EC31002000B000406C7603005D760300AB
:1071FC00002836D010B58CB00446C268002A32D0B4
:10720C008269002A32D04269002A31D0008901F00B
:10721C00C9FF012801D0102026E023780BB91020DB
:10722C0022E0022B05D094F90A30002B06DA072055
:10723C001AE06368002BF6D1102015E0214601A856
:10724C00FEF7B8FD9DF804302BB9228AE16801A83D
:10725C00FEF76CFF08E0228AE16801A8FFF798FCB2
:10726C0002E00E2070470E200CB010BD0E20FBE784
:10727C000E20F9E738B5054618B10A4B1C686CB9F5
:10728C0038BD7846084B1B680BB19847F5E700DE14
:10729C00F3E754F8043C284698472468002CF8D1AE
:1072AC0038BD00BFFC3B0020B44E002070B5064634
:1072BC0060B1351D12D01C4B1B689D4216D01A4B69
:1072CC001C68E4B91D600023736070BD7846174BD1
:1072DC001B680BB19847ECE700DEEAE77846134BE6
:1072EC001B680BB19847E6E700DEE4E778460F4BE6
:1072FC001B680BB19847E2E700DEE0E71C46236809
:10730C000BB1A542FAD134B12DB1A54202D02368FC
:10731C007360256070BD7846044B1B680BB19847B1
:10732C00F3E700DEF1E700BFFC3B0020B44E002089
:10733C0008B503881A4492B202808A4208D00388A6
:10734C00994209D87846054B1B6823B1984708BD6C
:10735C0000230380F3E700DE08BD00BFB44E00201D
:10736C0038B504460D468368828813448B4204D09A
:10737C0078460F4B1B68B3B198472A8804322046D5
:10738C0092B230F8041BFFF7D3FF2388A2889B1A14
:10739C009BB2042B04D87846054B1B682BB198473D
:1073AC000023AB7038BD00DEE7E700DEF8E700BF76
:1073BC00B44E00200B8819440431826803881344AE
:1073CC00994201D0084670471146FBE738B5044690
:1073DC000D46FFF7EFFFEFF3108172B6A2686388DA
:1073EC001344984204D001B962B60423AB7038BD83
:1073FC00AA1A628001B962B60023AB7038BD8368EB
:10740C001944887870470088043880B270470000AF
:10741C0010B50B88934210D99B1A9BB244884CB977
:10742C000488E31A43800A8042888368134400224C
:10743C009A7010BDE31A4380F5E7934206D0784664
:10744C00034B1B680BB1984710BD00DE10BD00BF8D
:10745C00B44E002038B5044643888268D518D15202
:10746C000123AB700A1D92B230F8021BFFF760FFCC
:10747C006288A3889A4203D0A368134400229A70AE
:10748C00284638BD70B51646091A8DB214880434D6
:10749C00A4B2A54204D27846064B1B683BB1984770
:1074AC002C1BA4B2042C01D8043D358070BD00DE29
:1074BC00F6E700BFB44E002083888B4201D2042033
:1074CC00704710B4428881688C1803889B1A9BB251
:1074DC00043B8B520423A3700023438018465DF8B1
:1074EC00044B704738B504460D468188FFF787FF7B
:1074FC0008B1042038BD238862889B1AAB4201DB9B
:10750C00002038BD29462046FFF7D6FF38BD08B508
:10751C00038842889B1A8B4201DB002008BDFFF7D1
:10752C00CBFF08BD838842889B1A8B4201DA04206A
:10753C0070470020704770B504460E460988043128
:10754C0089B2428883889A420FD09A4211D8FFF7A9
:10755C00E9FF05463DB96088A188884200D321889F
:10756C003246FFF78FFF284670BDFFF7BBFF05467D
:10757C00F0E7FFF7CCFF0546ECE710B50446808832
:10758C00A168014405E02046FFF7EAFEA088A16847
:10759C0001448B78042BF6D0084610BD70B5064616
:1075AC0015460C4600294FD0002E55D0B4F1005F83
:1075BC0008D94FF08053D3F80C3103F50023B4EB0A
:1075CC00832F11D3B4F5000F08D94FF08053D3F8A3
:1075DC000C3103F50053B4EB832F05D37846254BC0
:1075EC001B68002B40D098476B1E2344B3F1005FFF
:1075FC0008D94FF08052D2F80C2102F50022B3EBDF
:10760C00822F11D3B3F5000F08D94FF08052D2F866
:10761C000C2102F50052B3EB822F05D37846154BA3
:10762C001B68002B22D09847042D04D87846114BA8
:10763C001B68EBB19847358000237380B380B4602E
:10764C00043D2580A37070BD78460A4B1B680BB1B6
:10765C009847A9E700DEA7E77846064B1B680BB1F5
:10766C009847A3E700DEA1E700DEBDE700DEDBE71D
:10767C0000DEE0E7B44E002070B504468088A168B7
:10768C000144EFF3108672B68D78032D0AD1204693
:10769C00FFF790FE014605E004238B702046FFF7B0
:1076AC0089FE01468B78012B05D0A368CB1A9BB2BF
:1076BC0062889A42F0D1032D02D02046FFF75DFF7D
:1076CC0006B962B670BD0000F0B583B00D46ADF8DA
:1076DC000620064638B175B1BDF806409CB90924A0
:1076EC00204603B0F0BD7846174B1B680BB198478A
:1076FC00F1E700DEEFE77846134B1B680BB19847B8
:10770C00EAE700DEE8E73046FFF77DFE844201D968
:10771C000924E5E7E31C9BB223F0030302A921F83B
:10772C00023DEFF3108772B63046FFF704FF0446B4
:10773C0018B1002FD4D162B6D2E7BDF8061030468E
:10774C00FFF788FE2860F4E7B44E002070B582B0D5
:10775C000C46ADF80620054600283CD0002C42D043
:10776C00A378012B05D078462E4B1B68002B42D0FA
:10777C0098472288BDF806309A4205D27846294BA4
:10778C001B68002B39D09847BDF806302BB97846CA
:10779C00244B1B68002B32D09847BDF806300333BE
:1077AC009BB223F003039BB2ADF8063022889342C0
:1077BC000DD021462846FFF7FDFDEFF3108672B67B
:1077CC00AA686B88134498421BD006B962B6022390
:1077DC00A37002B070BD7846124B1B680BB1984772
:1077EC00BCE700DEBAE778460E4B1B680BB1984736
:1077FC00B6E700DEB4E700DEBBE700DEC4E700DE80
:10780C00CBE7A01A80B2A988814200D829880DF153
:10781C000602FFF737FEBDF8062021462846FFF783
:10782C00F7FDD2E7B44E002038B50C46054650B1F2
:10783C008CB12846FFF7A1FE8378022B13D0032BC3
:10784C0016D0052038BD78460E4B1B680BB19847F7
:10785C00EEE700DEECE778460A4B1B680BB1984765
:10786C00E7E700DEE5E7032383702060002038BDE6
:10787C007846044B1B6813B19847002038BD00DED6
:10788C00002038BDB44E002010B5044638B1204657
:10789C00FFF773FE8378022B09D0002010BD7846C9
:1078AC00044B1B680BB19847F1E700DEEFE70120B2
:1078BC0010BD00BFB44E002038B50546D0B12846E7
:1078CC00FFF75BFE04468078022814BF00200120DD
:1078DC0021468B78033BDBB2012B0AD82846FFF7F5
:1078EC0069FD01468078022814BF002001208C42DB
:1078FC00EFD138BD7846034B1B680BB19847DEE7D8
:10790C0000DEDCE7B44E002038B50C46054650B11D
:10791C008CB1A378012B16D0032B19D12146284604
:10792C00FFF71EFD38BD78460D4B1B680BB1984711
:10793C00EEE700DEECE77846094B1B680BB1984785
:10794C00E7E700DEE5E721462846FFF73FFD38BDB7
:10795C007846034B1B680BB1984738BD00DE38BD29
:10796C00B44E002008B50023092B09D8084A52F858
:10797C002320824201D00133F6E7064A536008BD4A
:10798C007846054B1B680BB1984708BD00DE08BD57
:10799C00BC770300003C0020B44E002008B5064B19
:1079AC00986800221A605A609A60DA601A615A610B
:1079BC009A6104F007FF08BD003C002010B5294B6C
:1079CC00DB688BB1274B1B7E23B17846264B1B689B
:1079DC0093B19847234B5B68092B1DD97846224BF2
:1079EC001B685BB1984717E078461F4B1B680BB1BF
:1079FC009847E7E700DEE5E700DEEBE700DE0BE0AB
:107A0C0000DE02E00022174B5A60012C01D0032C3F
:107A1C0026D1144B1B7E1BBB124B5A68134B53F8CD
:107A2C00223098470446022810D00328EAD00128B7
:107A3C00EBD10C4A536801335360092BE5D97846D6
:107A4C00094B1B68002BDBD09847DEE7054B1B7EF0
:107A5C001BB10222034B1A70D7E7FFF79FFFD4E745
:107A6C0010BD00BF003C0020B44E0020BC770300CA
:107A7C00104B1B681B685A1E12F1030F18D8C3F366
:107A8C000B020AB10020704710B50B4AD3600023DB
:107A9C00137653760124147093600848FFF762FF45
:107AAC000749204601F0A0FAFFF788FF204610BDD9
:107ABC0000207047203C0020003C00200D7B020081
:107ACC00D17A020008B50B78032B06D00B4B1B7830
:107ADC00012B06D0022B0BD008BD0022074B1A76C7
:107AEC00F4E7064B1B7E002BF6D1FFF767FF08BDB2
:107AFC000B78032BF0D1FFF751FFEDE7003C002092
:107B0C0000B585B00A4BDB6802228DF8002001938A
:107B1C004FF480530293074A6946012001F07AFA28
:107B2C0018B1002005B05DF804FB0120FAE700BF96
:107B3C00003C00201C3C002000B585B00A4B1B68A3
:107B4C0002228DF8002001934FF480530293074AD0
:107B5C006946012001F05EFA18B1002005B05DF80D
:107B6C0004FB0120FAE700BF203C00201C3C002055
:107B7C00154BDA68137951795B1A03F57F2303F6F9
:107B8C00FF731B0305D002F580520F4BDA60032004
:107B9C00704700B585B00D4B1B6801208DF80000B7
:107BAC0001930B4B0393042302930A4A694601F099
:107BBC0031FA30B90122044B1A76022005B05DF877
:107BCC0004FB0020FAE700BF003C0020203C002012
:107BDC00243C00201C3C002000B585B00C4BDA681E
:107BEC000C4B1B68043301208DF8000001920393A9
:107BFC0040F6FC730293084A694601F00BFA28B967
:107C0C000120034B187605B05DF804FB0020FAE761
:107C1C00003C0020203C00201C3C002000B585B01E
:107C2C000A4B1B6801208DF800000193084B03934D
:107C3C0004230293074A694601F0ECF918B10020BD
:107C4C0005B05DF804FB0120FAE700BF203C0020E2
:107C5C000C3C00201C3C002010B584B0114BDA68A1
:107C6C001478114B1B68043301208DF8000001932C
:107C7C00039202940D4A694601F0CCF980B90A4B83
:107C8C001B6804F0FC041C440434064B5C61D9688A
:107C9C000A780A441A6100225A76012004B010BDF9
:107CAC000020FBE7003C0020203C00201C3C002076
:107CBC0000B585B0174BDB6818784FF6FF7203F5EB
:107CCC008051184405F04EF9F0B10246114BD968B9
:107CDC000B780B44984219D00E4B5B7E93B10E4B34
:107CEC0001208DF8000001920393042302930B4AA8
:107CFC00694601F08FF958B90120064B187605B08A
:107D0C005DF804FB064BEBE70120F8E70120F6E7F2
:107D1C000020F4E7003C0020687903001C3C0020A4
:107D2C006479030008B50F4BDB681878002203F563
:107D3C008051184405F016F908B1012008BD094B13
:107D4C00DA68137951795B1A03F57F2303F6FF7315
:107D5C001B0305D002F58052024BDA60032008BDEC
:107D6C00022008BD003C002070B584B04F4BDD688C
:107D7C006B792A79511E8B4200F0938005F5805166
:107D8C000C780C444A490968081D0E790644D31A2C
:107D9C0003F57F2303F6FF731B0303F580531D4488
:107DAC006388013B9BB247F6FE6293421AD858E0B7
:107DBC00002456E000DE238804EB830323F47F6267
:107DCC0022F00F02934217D06288B2F5FE4F13D007
:107DDC009D42EDD95A88013A92B21C4647F6FE6193
:107DEC008A423ED92388002BE5D17846314B1B685B
:107DFC00002BDFD09847DEE724F47F6323F00F03DA
:107E0C0003F580531A781344E2E700DE238804EB71
:107E1C00830323F47F6222F00F02934217D062880F
:107E2C00B2F5FE4F13D09D421AD95A88013A92B23C
:107E3C001C4647F6FE618A4213D92388002BE5D1F4
:107E4C0078461C4B1B68002BDFD09847DEE724F4E8
:107E5C007F6323F00F0303F580531A781344E2E792
:107E6C000024DCB1124B1968628801F58051304650
:107E7C0005F078F80646B0B101200C4B18768DF859
:107E8C00000001940C4B0393042302930B4A6946A4
:107E9C0001F0C0F80028D0D0002000E0012004B090
:107EAC0070BD0120FBE70120F9E700BF003C00207A
:107EBC00203C0020B44E0020607903001C3C0020C4
:107ECC00F0B587B0714B1B6923B1704B5B694BB13B
:107EDC0000274CE078466E4B1B680BB19847F4E7D3
:107EEC0000DEF2E778466A4B1B680BB19847EFE768
:107EFC0000DEEDE700DE238804EB830323F47F62CE
:107F0C0022F00F02934217D06288B2F5FE4F13D0C5
:107F1C009D421AD95A88013A92B21C4647F6FE6124
:107F2C008A4213D92388002BE5D17846584B1B681D
:107F3C00002BDFD09847DEE724F47F6424F00F0495
:107F4C0004F5805423782344E2E70024002C35D137
:107F5C0000230093019B002B6CD10127002C00F017
:107F6C008C80628847F6FF739A4200F08680474BFC
:107F7C005B7E002B40F08780002F40F08280434BCB
:107F8C005A6922F47F6626F00F06B61A06F580565B
:107F9C001C69DD682B796A799B1A03F57F2303F63C
:107FAC00FF731B0303F580531D4400230193638867
:107FBC00013B9BB247F6FE629342B3D800940EE0AD
:107FCC0000DE238804EB830323F47F6222F00F028C
:107FDC00934226D06288B2F5FE4F22D01C46A542B1
:107FEC00B8D92388019A02EB83029642B2D9009B3E
:107FFC00634023F47F6323F00F03002BAAD1638823
:10800C00013B9BB247F6FE618B42A3D801922388B9
:10801C00002BD6D178461E4B1B68002BD0D098472E
:10802C00CFE724F47F6424F00F0404F58054237804
:10803C002344D3E7154A526901208DF808000392B6
:10804C00009A05920493134A02A900F0E3FF90B939
:10805C000E49019B23F003024B6913444B6114B18D
:10806C000A4B1C617AE77846094B1B680BB19847A1
:10807C00F6E700DEF4E7002006E00122034B5A7617
:10808C0075E7012000E0012007B0F0BD003C0020A6
:10809C00B44E00201C3C002008B54FF010235B6947
:1080AC00B3F1FF3F03D04FF010235B6963B94FF07E
:1080BC0080525169136903FB01F3A3F58053044A01
:1080CC001360FFF7D5FC08BD4FF010235B69F4E794
:1080DC00203C0020024B1878003018BF012070475C
:1080EC00003C002010B584B00446244B1B782BB107
:1080FC007846234B1B68002B3BD098472378032BE7
:10810C0005D078461E4B1B68002B34D098471B4B70
:10811C009C60E268DA6000245C601C7601201870B8
:10812C005C76184900F060FFFFF748FC0A238DF8D5
:10813C0008308DF809408DF80A40039402A8FDF729
:10814C000DFDA0B1104B1B6813F0200F0FD00F4B7F
:10815C001B68012B0BD90E4BD3F8043501900D4A3B
:10816C00009240F27B220C49022003F083FA04B007
:10817C0010BD00DEC2E700DEC9E700BF003C0020F6
:10818C00B44E0020D17A0200F0310020EC310020F6
:10819C0000B000406C760300A5770300014B186813
:1081AC00704700BF203C002010B50446B8B163688E
:1081BC001BB123680BB1A36823B978460E4B1B681F
:1081CC00ABB19847A3685A1E134204D078460A4BA9
:1081DC001B6873B198470023E360236110BD784698
:1081EC00054B1B680BB19847E1E700DEDFE700DECB
:1081FC00E8E700DEEFE700BFB44E0020F8B510B39F
:10820C00044611B3826812B909252846F8BDEFF36C
:10821C00108572B6026980680244E668B2420ED0DC
:10822C0027686368013830401A4600FB03700EF073
:10823C005DFEE3680133E3605DB962B6E5E735B92D
:10824C0062B60425E1E70E25DFE70E25DDE7042500
:10825C00DBE70025D9E770B508B30446826812B98C
:10826C000925284670BDEFF3108572B60669C26801
:10827C00964210D0084621686268A368013B1E40F4
:10828C0006FB021108B10EF031FE236901332361A4
:10829C004DB962B6E5E725B962B60525E1E70E25CD
:1082AC00DFE70525DDE70025DBE70000C0F30B0366
:1082BC000BB11020704709B90920704701F6FF7106
:1082CC00090B0222104BC3F804250F4BD3F80034D2
:1082DC00002BFAD000220AE00B4BC3F808050A4B1E
:1082EC00D3F80034002BFAD000F5805001328A42CA
:1082FC00F2D30022044BC3F80425034BD3F800340B
:10830C00002BFAD00020704700E0014010F0030F62
:10831C0002D010231846704711F0030F01D0102320
:10832C00F8E70AB90923F5E712F0030F01D0092386
:10833C00F0E710B493080124124AC2F80445114A1C
:10834C00D2F80024002AFAD002E00430043113469B
:10835C005A1E53B10B68B3F1FF3FF6D00360094BC3
:10836C00D3F80034002BFAD0EFE70021054AC2F80D
:10837C000415044AD2F80024002AFAD018465DF8F5
:10838C00044B704700E00140064B1B68834202D14E
:10839C00002304E0134613B15A689042FAD11846F0
:1083AC00704700BF284C002038B50C4B1B6883422B
:1083BC0007D00446FFF7E8FF054630B163686B60F1
:1083CC0038BD5A68054B1A6038BD7846044B1B689B
:1083DC000BB19847F2E700DEF0E700BF284C002015
:1083EC00B44E00200388033189B221F0030189B215
:1083FC008B4224D0024601D207207047581A082815
:10840C0001D80720704730B4EFF3108072B611809A
:10841C0001F1080554195B1A9BB2083B5353002316
:10842C006380538833B953686360546048B962B64B
:10843C0030BC7047044B1A6862601C60F6E7002081
:10844C0070470020F4E700BF284C00200180002377
:10845C00438042607047000038B5134C4FF4805590
:10846C002A46002120460EF06BFD104B1C600AE0E2
:10847C00002228212046FFF7E9FF238808332344F4
:10848C006360303D1C46502DF2D8083D04D178462F
:10849C00074B1B6833B198470022A9B22046FFF75F
:1084AC00D5FF38BD00DEF7E7283C0020284C002023
:1084BC00B44E00202DE9F843CE1CB6B226F00306CC
:1084CC00B6B2731E9BB2B3F5BE7F03D30923184615
:1084DC00BDE8F883EFF3108972B6434B1D6815B1F4
:1084EC00804600272AE0B9F1000F78D162B6042348
:1084FC00EDE72046FFF758FF3B4B1B689D4216D01B
:10850C00BC4206D023882A88134408332B800123CD
:10851C0010E02846FFF738FF07460028F2D17846CE
:10852C00324B1B680BB19847ECE700DEEAE70027FB
:10853C00E8E700230BB92F466D686DB12B889E427E
:10854C000AD91C4608342C44294B9C42F1D263882E
:10855C00002BCED00023EDE705B32B88254AA2FBD8
:10856C000323013E244A82FB0612F617C6EB2216A1
:10857C000136B6EB531F17D301236B801FB36B6807
:10858C007B60B9F1000F00D162B6174B1B689D429E
:10859C001DD00835C8F80050002398E7B9F1000F3A
:1085AC001FD162B6042392E706EB8606F10089B26E
:1085BC002846FFF717FF03460028DDD0B9F1000F5E
:1085CC0085D162B683E76A68074B1A60D9E77846AB
:1085DC00064B1B680BB19847DBE700DED9E7042399
:1085EC0075E7042373E700BF284C0020B44E00202D
:1085FC00284C0020CDCCCCCC6766666670B50446A2
:10860C00194B984205D203F58053984226D2012388
:10861C0000E0012323B97846144B1B6803B3984739
:10862C00A4F10806EFF3108572B634F8063C012B62
:10863C0004D078460D4B1B68A3B19847002124F851
:10864C00061C34F8082C20460EF07AFC084B1A68ED
:10865C0044F8042C1E6005B962B670BD0023D9E73E
:10866C0000DEDDE700DEE9E7283C0020B44E002008
:10867C00284C002010B5044608B1A04710BD784620
:10868C00034B1B680BB19847F7E700DEF5E700BF1B
:10869C00B44E002008B508220221084803F0D0FE91
:1086AC0038B1074A91684160127B027203F00CFFEB
:1086BC0008BD044804F054F808BD00BF304C00203D
:1086CC006C4C0020CC3100200E4B1B78CBB910B574
:1086DC000D4B5C6804F50054B4F1807F00D910BDDB
:1086EC0004220121094803F0ABFE30B1446003F0D1
:1086FC00EBFE0122034B1A70F1E7054804F030F849
:10870C0010BD7047804C00206C4C0020304C002079
:10871C00BC31002000B58DB003908DF808100CA86A
:10872C00022300F82C3DFEF7A5FD0DB05DF804FB0F
:10873C0010B58CB00C469AB94B88012B28D1164B2E
:10874C001B7823B97846154B1B683BB19847626878
:10875C00134B5A600022104B1A7019E000DEF6E73A
:10876C00032A04D078460D4B1B689BB198472C22EA
:10877C00002101A80EF0E4FB19238DF804300394BA
:10878C00084BDA6805921B69069301A8FEF772FD87
:10879C000CB010BD00DEEAE7804C0020B44E002087
:1087AC006C4C0020304C002038B500E020BF03F0AA
:1087BC00F9FF0028FAD001F061FF002211461B4896
:1087CC0003F088FD00252C4605E0051D024600211E
:1087DC00164803F07FFD30B14388012BF5D0022BF6
:1087EC00F4D1041DF2E7A4B19DB12268104B9A603C
:1087FC0022791A73AC4201D9237993B12A680C4BB4
:10880C001A600B4B1A685A60FFF75EFF01F056FFB7
:10881C0038BD074B00221A609A601A73FFF73AFFB3
:10882C00EFE70022024B1A60EBE700BF304C002050
:10883C006C4C002008B503F0FDFFA0F5805008BD7E
:10884C0000B587B000230093019302930393049324
:10885C000593FFF7EFFF009001230193064B039361
:10886C006946064803F02EFF10B907B05DF804FB0B
:10887C00034803F075FFF8E73D870200304C0020F9
:10888C00DC31002010B50C4B00241C605C609C603B
:10889C00DC601C6101F016FA084B5860084A9A60BB
:1088AC00084ADA601C615C61074A1470184601F0D2
:1088BC00E9F8FFF7C5FF10BD6C4C0020544C0020AC
:1088CC00E989020000879303814C002038B501F040
:1088DC00D5FE174B1B7B23B1082401F0EFFE20467D
:1088EC0038BD134B9B7B0BB10824F6E7104B1A8A4F
:1088FC0041F282639A4204D80E4B1B782BB10123B0
:10890C0000E001231BB90824E7E70023FAE7084D30
:10891C0001232B7300242C82AB680133AB60FFF76F
:10892C00B9FEA868297B0138FFF7F4FED5E700BF34
:10893C006C4C0020814C002010B501F09FFE244BA4
:10894C005B7B9BB1224B9B7B03BB214B1A8A41F275
:10895C0082639A4204D81F4B1B782BB1012300E091
:10896C000123ABB1012302E00023FAE700231C46EC
:10897C0043B3174B00225A731B7B5BB1012B14D0F2
:10898C007846154B1B680BB398471BE00023EEE7AA
:10899C000023ECE7FFF79AFFA0B178460E4B1B685B
:1089AC000BB198470EE000DE0CE0094B002119607A
:1089BC005960197319829868FFF7ACFEFFF76AFECD
:1089CC00FFF782FE01F07AFE204610BD00DEF9E7CB
:1089DC006C4C0020814C0020B44E002010B5264B6E
:1089EC001B7B4BB1012B27D07846244B1B68002BEB
:1089FC003DD0984701240DE01F4B1A8A41F2826347
:108A0C009A4204D81E4B1B7883B1012300E001234A
:108A1C0073B901241CB1184A138A01331382164B03
:108A2C005B8A13B1013B144A538210BD0023EFE75C
:108A3C00FFF782FF0024EDE70F4B1A8A41F28263A5
:108A4C009A4204D80E4B1B787BB1012300E0012322
:108A5C001C467BB142F2B0139A4203D90122064B59
:108A6C005A730024FFF768FFD4E70023F0E700DE19
:108A7C000124CFE70124CDE76C4C0020B44E00203C
:108A8C00814C002010B5184B1A685B689A4225D2AD
:108A9C000446154B1B7B012B15D0144B934214D958
:108AAC00002028B9104B1A685B68403B9A4212D2DE
:108ABC00EFF3108072B60C4A1368591C11602360D6
:108ACC0080B962B610BD0A4BE8E70122064B5A7317
:108ADC00FFF732FFE5E7FFF7F7FDE9E7FFF7F4FDF6
:108AEC000F2010BD002010BD6C4C0020FFFF7F003C
:108AFC0000E0FF0008B568B90E4B1B6823B9784637
:108B0C000D4B1B6873B198470A4A1368013B1360FD
:108B1C0053B108BD0122094B9A73064A13680133FD
:108B2C00136008BD00DEEFE70022044B9A73FFF7D9
:108B3C0003FFEEE72C4C0020B44E00206C4C0020C0
:108B4C0038B505460C4601F099FD254B1B7B002BD7
:108B5C0034D1234B5B8A2BBB1CB9214B9B68AB429A
:108B6C0005D3FCB11E4B9B6801339D421AD91C4B9B
:108B7C009B682A339D4223D8194B9B7B03BB184C13
:108B8C00A56023606360238242F60652628263739F
:108B9C002373FFF77FFDFFF797FD217BA068FFF79D
:108BAC00B9FD0DE064B10E4B9B6801339D4207D1BA
:108BBC0001220B4B5A73FFF7BFFE01E0012B02D0D1
:108BCC0001F07CFD38BD002CFAD1054B9B689D4211
:108BDC00F6D10122024B5A73FFF7AEFEF0E700BF4D
:108BEC006C4C0020014B9868704700BF6C4C002007
:108BFC00054B1B7B012B02D0034B98687047024B33
:108C0C0098680138704700BF6C4C0020044B9B687F
:108C1C00584010F0010F00D0013B1846704700BFC0
:108C2C006C4C0020014B187B704700BF6C4C002033
:108C3C0008B50278012A09D0022A15D07846114BC2
:108C4C001B68D3B198474FF4FA7308E083685B1A3A
:108C5C0098084FF4A97303FB00F303F5FA730A4861
:108C6C00984228BF184608BD83685B1A180B074B3F
:108C7C0003FB00F303F5FA73F1E700DE4FF4FA732C
:108C8C00EDE700BFB44E0020A0860100645E010039
:108C9C0008B50378012B08D0022B0CD07846074B73
:108CAC001B682BB19847002008BD4FF4A97008BD74
:108CBC0000DE002008BD024808BD00BFB44E0020F5
:108CCC00645E01002DE9F041002722E02349B8231E
:108CDC0003FB04F3CA5A0132CA520221404602F085
:108CEC006BFB01360221404602F02CFB70B1B8231D
:108CFC001A4A03FB04239D68002DE7D0B82303FB1D
:108D0C0004F3D25A01463846A847DFE796B9013733
:108D1C00FFB2022F20D83C46B82303FB07F30833DD
:108D2C000E4D1D4405F104080221404602F00AFBD9
:108D3C000026DBE70021404602F0CAFB0828E6D1FA
:108D4C00B822064B02FB0434A368002BDFD00022B0
:108D5C00034938469847DAE7BDE8F0818C4C00208F
:108D6C00E477030008B5082383731023437300F1E1
:108D7C001C0343610323037300F1180303610C30DC
:108D8C0002F064FB08BD000010B5044601210C3054
:108D9C0002F0D8FAD8B10E4AC4F89C200022C4F8CC
:108DAC00A0206168FFF744FFC4F8A400C4F8A840F1
:108DBC00012384F8B43004F19C0009F085FC30B137
:108DCC007846044B1B680BB1984710BD00DE10BDF4
:108DDC00158F0200B44E0020F8B506460C46174617
:108DEC0015680378012B04D07846164B1B681BB30F
:108DFC0098471549A1FB0431C9098900B468641B63
:108E0C00A14200D80C4624B978460E4B1B68ABB176
:108E1C009847706825F00305F168224629442844D8
:108E2C00FFF774FA20B17846064B1B6843B198479C
:108E3C003B681C443C60F8BD00DEDAE700DEE8E786
:108E4C0000DEF5E7B44E0020EB5DF260F8B50746A6
:108E5C000C46164615680378022B04D07846154B41
:108E6C001B680BB39847144BA3FB04231B0C1B036D
:108E7C00BC68641BA34200D81C4624B978460D4B31
:108E8C001B689BB19847786825F003052146284458
:108E9C00FFF70CFA20B17846064B1B6843B1984794
:108EAC0033681C443460F8BD00DEDCE700DEEAE722
:108EBC0000DEF5E7B44E0020B77609BB38B50546A1
:108ECC000C4611462378012B08D0022B11D0784682
:108EDC000C4B1B689BB19847002004E0021D2046F8
:108EEC00FFF77AFFA0686B68984214BF002001203E
:108EFC0038BD021D2046FFF7A9FFA068F3E700DE8E
:108F0C000020F0E7B44E00202DE9F8438846D1F854
:108F1C00A450264B1B7863B90646A5F5FA7501F1EA
:108F2C000C090121484602F00DFA074640B1002415
:108F3C0028E009F019FC002388F8B430BDE8F88368
:108F4C0078461B4B1B680BB19847F0E700DEEEE749
:108F5C0009F00AFC0121484602F02EFA0023C8F859
:108F6C00043088F8B430134B186801F0F1FB40461C
:108F7C00FFF70AFFBDE8F8833846FFF789FE204467
:108F8C0085420CD32A1B39464046FFF797FF002831
:108F9C00DED100F097FE841BEED5341AECE709F015
:108FAC00E3FB4046FFF7F0FEBDE8F883884C002059
:108FBC00B44E0020844C002010B5084801F09EFBF4
:108FCC00074B1860002406E0B820064B00FB043069
:108FDC00FFF7C8FE0134022CF6D910BDD18C02006B
:108FEC00844C00208C4C002038B504460D460228D9
:108FFC0004D97846054B1B6833B19847B822044B0B
:10900C0002FB0434A56038BD00DEF7E7B44E002047
:10901C008C4C00202DE9F84306460C46904602285D
:10902C0005D978465C4B1B68002B4CD09847002C1C
:10903C004BD02378012B50D0022B7AD07846564B4C
:10904C001B68002B00F097809847EFF3108772B6DF
:10905C00B82505FB06F505F10803504D1D440435F4
:10906C000021284602F06EF98146002800F08D8020
:10907C000021284602F0A0F920686168A268E36824
:10908C00C9F80000C9F80410C9F80820C9F80C3058
:10909C00B8F1000F06D0B823404A03FB06235B88C7
:1090AC00A8F80030B8233D4A03FB06235A88013246
:1090BC005A8093F8B430002B6CD1394B1B78002BB1
:1090CC005BD0002062E000DEB1E77846324B1B68D3
:1090DC000BB19847ADE700DEABE7636813F0030F05
:1090EC0004D078462C4B1B68DBB19847E36813F02F
:1090FC00030F04D07846284B1B68A3B19847A3688C
:10910C0013F0030F04D07846234B1B686BB19847C0
:10911C00A368002B99D178461F4B1B683BB198472D
:10912C0093E700DEE2E700DEE9E700DEF0E700DED1
:10913C008BE76368C3F30B0323B17846164B1B68AC
:10914C009BB19847A368C3F30B0323B17846124B2A
:10915C001B6863B19847A368002B7FF476AF784601
:10916C000D4B1B682BB198476FE700DEEAE700DE7A
:10917C00F1E700DE69E700DE67E7B820074B00FB8C
:10918C000630FFF701FE002000E0042007B962B6AC
:10919C00BDE8F8830020F9E7B44E00208C4C002089
:1091AC00884C002018B1830B024AD05C7047002019
:1091BC00704700BFF477030012DF704730B583B0FF
:1091CC00284B1B781BB10824204603B030BD002867
:1091DC0046D005464268244B1A60FCF7D5FC0DF1CD
:1091EC000700FFF7E9FF04460028EDD19DF8073092
:1091FC00012B01D00224E7E7FCF7FAFC00F02EFC6F
:10920C0001F006FAE87800F0B1F901F0C3F809F0C2
:10921C0035FA0AF065F808F0F5FFFFF7CDFE02F01D
:10922C00C5FF03F055FF2846FDF7DCFE284601F08C
:10923C002DFF42F2107003F08FFD2846FFF70CF95A
:10924C00FCF78AFC18B1062801D00446BCE700F0F4
:10925C005DFE0022054B1A600122024B1A70B3E727
:10926C000E24B1E7B94E0020B44E0020BC4E0020B5
:10927C0010B5104B1B7813B90824204610BD0E4BAB
:10928C001B780BB10824F8E701F0AAF820B1784656
:10929C000A4B1B685BB1984709F006FA0446002894
:1092AC00EBD109F017FF0122034B1A70E5E700DE42
:1092BC00F2E700BFB94E0020B84E0020B44E00209B
:1092CC0008B5FDF795FF08BDF0B58DB009F042FF6C
:1092DC0005460027BBE02B7D03F00F03022B41D08A
:1092EC00237801331C446A7D052A40F29A8002F1EE
:1092FC0012032B4405339C4280F093806378163B19
:10930C00152BEDD801A252F823F000BF15940200E2
:10931C00ED920200ED920200ED920200ED9202003D
:10932C00ED920200ED920200ED920200ED9202002D
:10933C00ED920200ED920200ED920200ED9202001D
:10934C00ED920200ED920200ED920200ED9202000D
:10935C00ED920200ED920200AD930200E392020046
:10936C00C7930200217806AA0139A01C01F0A0FFC6
:10937C0007460028B4D03E4B1B6813F0400FAFD00B
:10938C003C4B1B68012BABD93B4BD3F804350190FC
:10939C003A4A0092F8223A49022002F06BF99FE710
:1093AC002B7D03F00F03022B9AD12178013906AAE9
:1093BC00C9B2A01C08F08EFD92E72B7D03F00F03C1
:1093CC00022B8DD12178013906AAC9B2A01C03F059
:1093DC0037FD0746002883D0254B1B6813F0400F40
:1093EC003FF47EAF234B1B68012B7FF679AF224BEA
:1093FC00D3F804350190234A009240F20B12204915
:10940C00022002F037F96BE762884FF6E4639A4268
:10941C007FF466AF217806AA0339201DFCF79CFB6C
:10942C005EE7194B196861B106AB05932B7DC3F34D
:10943C0003038DF80C30063A8DF80D20049603A822
:10944C008847284609F060FE09F084FE054665B1A0
:10945C0000238DF8183007AC2E460FCE0FC433689E
:10946C00236005F11D0634463DE738460DB0F0BDCE
:10947C00F0310020EC31002000B0004030780300C7
:10948C00257803005C780300BC4E00200020704758
:10949C0008B500F043FF002008BD08B5FDF706FF36
:1094AC0008BD000010B5044618B1002323606360AA
:1094BC0010BD7846034B1B680BB19847F5E700DEEF
:1094CC00F3E700BFB44E002038B50C46054668B132
:1094DC00A4B100236360EFF3108372B62A68AAB1BB
:1094EC006A6854606C6003B962B638BD7846084B44
:1094FC001B680BB19847EBE700DEE9E77846044BB5
:10950C001B680BB19847E4E700DEE2E72C60E9E763
:10951C00B44E002010B5044658B1EFF3108372B668
:10952C00206808B142682260226852B103B962B661
:10953C0010BD7846044B1B680BB19847EDE700DE75
:10954C00EBE76260F2E700BFB44E002010B50446B2
:10955C0008B1206810BD7846034B1B680BB19847C7
:10956C00F7E700DEF5E700BFB44E0020072814D85B
:10957C00DFE800F0080C1504110F0A066420704790
:10958C0014207047FA2070471E2070474FF4FA7071
:10959C007047322070474B207047FA207047962056
:1095AC00704753B130B4013B9BB2CC5CD55C6C4082
:1095BC00C454002BF7D130BC7047704770B50C46C3
:1095CC001546324E002333607360B360F36032464D
:1095DC003146FCF7F1FA96F90030002B02DB002142
:1095EC0010230CE0002110231CE0013B9BB2274808
:1095FC00C25C5200D2B20A43E254C25CD109002BC5
:10960C00F3D194F90030002B1ADB0021102323E056
:10961C00013B9BB21D48C25C5200D2B20A43E254D9
:10962C00C25CD109002BF3D1102306E0013B9BB2A5
:10963C00E25C1749C95C4A40E254002BF6D1E0E7E2
:10964C000021102314E0013B9BB2E25C5200D2B229
:10965C000A43EA54E25CD109002BF4D170BD013B02
:10966C009BB2E25C5200D2B20A43EA54E25CD109EA
:10967C00002BF4D1102306E0013B9BB2EA5C0449B9
:10968C00C95C4A40EA54002BF6D170BDC04E002094
:10969C00887803002DE9F04385B007460C46154643
:1096AC00984602F10F0636111FFA86F9354A3649EB
:1096BC00FFF784FF354B00221A605A609A60DA601B
:1096CC0005F00F05B9F1000F11D085B909F1FF3084
:1096DC000001102308E0013B9BB22218D25C2A49FE
:1096EC00C95C4A400DF80320002BF4D120E0B1B244
:1096FC000139ADB22A4604EB011168460DF0F6FBB8
:10970C0080230DF805306B1C03E000220DF80320BC
:10971C0001330F2BF9DD102308E0013B9BB21DF840
:10972C0003201849C95C4A400DF80320002BF4D1E2
:10973C00002510E0013B9BB21449CA5C04EB0E00FF
:10974C00C05C4240CA54002BF4D110490A4638463A
:10975C00FCF732FA0135B3B2013B9D4203DA4FEA12
:10976C00051E1023EFE7094C1023224669462046BC
:10977C00FFF717FF424621463846FCF71DFA05B0A5
:10978C00BDE8F083E04E0020D04E0020C04E0020FB
:10979C0010B50446436923B178461C4B1B686BB16A
:1097AC0098471B4B1B685BB16068194B1B685B6867
:1097BC00C31A002B04DB164B196812E000DEF0E72D
:1097CC00134A136863611460D3680133D360E3B93F
:1097DC0078460E4B1B680BB1984710BD00DE10BDD0
:1097EC0019464B691BB15A68121A002AF8DB6361DF
:1097FC004C61074AD3680133D36033B97846034BC5
:10980C001B680BB1984710BD00DE10BDB44E002094
:10981C00F44E0020134B5B681BB310B50BE0002318
:10982C00237005E000DE022323702046FFF7B0FF13
:10983C000C4B5B68A3B10B4B5C6862695A600023EC
:10984C0063612378DBB2052BE9D02378DBB2012BE3
:10985C00E9D07846044B1B68002BE3D09847E2E72D
:10986C0010BD7047F44E0020B44E002070B5244E4D
:10987C0015E06369336000236361214AD368591E84
:10988C00D16023B978461F4B1B68C3B198471C4A5B
:10989C009368013B936000232370032D11D034682F
:1098AC00002C2BD0164B9B68002B27D02578EDB2C3
:1098BC00EB1EDBB2012BDCD904F11406EFE700DE62
:1098CC00E5E7237843B12378DBB2062B04D0784646
:1098DC000C4B1B6873B19847636923B17846094BED
:1098EC001B684BB1984701232370054B5A68626182
:1098FC005C60D4E700DEEFE700DEF4E770BD00BF8C
:10990C00F44E0020B44E002038B5054616E000DEBB
:10991C002AE09847A368002B37D006232370A3684E
:10992C0021692846984700F0CDF90546FFF79EFFC0
:10993C00FFF770FF2378DBB2062B2ED0204B1B6871
:10994C00002B3BD01E4B1B685B685B1B642B35D517
:10995C001B4B1C682378DBB2022B05D07846194BC5
:10996C001B68002BD3D098476269154B1A600022F4
:10997C006261DA68511ED960002ACBD17846114B4E
:10998C001B68002BC5D100DEC4E778460D4B1B6865
:10999C000BB19847C1E700DEBFE7E26812B90023BC
:1099AC002370CBE76368134463605B1B642BF9D4AF
:1099BC00022323702046FFF7EBFEBFE738BD00BF44
:1099CC00F44E0020B44E002008B5164B1B68002B3B
:1099DC0026D0144B1B685B68C31A13F1640F0DD4AB
:1099EC000223114A00F16401012000F02FF9B8B1F3
:1099FC0078460E4B1B6893B1984708BD094B196804
:109A0C000223094A4968012000F020F940B1784648
:109A1C00064B1B680BB1984708BD00DE08BD00DE85
:109A2C0008BD00BFF44E0020599A0200B44E00202D
:109A3C0008B5FFF71BFFFFF7EDFE00F043F9FFF74A
:109A4C0063FF00F03FF9FFF7BFFF08BD08B5024BFD
:109A5C00186800F07DFE08BDF04E002008B5064BDE
:109A6C0000221A605A609A60DA60044800F046FEE0
:109A7C00034B186008BD00BFF44E00203D9A020055
:109A8C00F04E002038B50446002827D0A368002BE0
:109A9C002CD0EFF3108572B60023636123784BB1A1
:109AAC002378DBB2062B05D07846164B1B68002BAF
:109ABC0024D09847636923B17846124B1B68FBB1DD
:109ACC00984701232370104B5A6862615C6005B99A
